:02000002D0002C
:1040000000400D00B4750D00000006000C00050115
:084010000401E80500000000B6
:04401800B8700D006F
:10401C0009480A49884208B505D0094A824202D0AB
:10402C00121A03F000F80748074A0021121A03F08D
:10403C0005F8014808BD00BF74DE032024750D008F
:10404C00DCDE0320DCDE0320F0E7032070B502F099
:10405C000FFA074C074BE41AA40800251E46A5428C
:10406C0004D056F8253098470135F8E770BD00BFED
:10407C001C750D0098740D0000F07AB808B500F0AE
:10408C0019F9BDE8084002F0B5B901F07BBF01F0A9
:10409C0079BF0078B0FA80F04009704701230370B3
:1040AC007047037C03F00803024603F0FF002BB1BA
:1040BC00D36A506A181A48BF6FF0004070477047B7
:1040CC007FB5024608461379956833B13DB90C4962
:1040DC0004B0BDE8704002F0C5B80A4B00E00A4BD2
:1040EC00167B0A4C0A49527B0292012E08BF2146CC
:1040FC0001910095074A002102F0F1F804B070BD5F
:10410C0011710D0093720D0000710D0009710D00FD
:10411C000D710D0027710D00103000F0BBBE10307A
:10412C0000F0D0BD07B501220DF10701103000F0F1
:10413C0016FD01280CBF9DF807004FF0FF3003B0AF
:10414C005DF804FB103000F031BF07B502AB012263
:10415C0003F8011D1030194600F028FF03B05DF87C
:10416C0004FB10B53421044602F0E4FD204610BDDA
:10417C007FB502F07DFA4FF4165102F06DFA64200F
:10418C0002F0FAF8294C2A4801F081FC294B2A4A02
:10419C00009304F58C6600238DF8043002920125FF
:1041AC008DF80D300E226B4604F26C4130468DF8C2
:1041BC000C5001F043FA90B304F23C40266000F03E
:1041CC009FFE2946204601F0E2F8014640B1174C0B
:1041DC0004F23C452146284600F0A9FCF8B105E064
:1041EC00204601F0D4F80028F1D118E094F83C34C2
:1041FC0013F0700F13D0114B1D6002F039FA1049F7
:10420C0002F043F80121122002F0F2FC01211020EF
:10421C0002F0EEFC00210F2002F0EAFC04E002F0B8
:10422C0027FA084902F031F804B070BD44DF0320CE
:10423C0020DF0320D4700D0080F0FA02CCE30320C1
:10424C0045710D0052710D0010B51248124C01F061
:10425C004DFC20600F4801F02FFC104B104A1860E9
:10426C0012682368934201D1042210E00D4A1268AF
:10427C00934201D103220AE00B4A1268934201D106
:10428C00022204E0094A1268934202D10122084B2F
:10429C001A6010BD20DF032040DF0320C8E3032099
:1042AC00AC710D00A8710D00A0710D00A4710D0072
:1042BC003CDF0320F0B50F208FB002F0C3FC0128C7
:1042CC00044647D10146102002F0A3FC0021122025
:1042DC0002F09FFCFFF7B8FF4FF47A730393234B64
:1042EC000193002744F20223214A22498DF81470CD
:1042FC0005A805AC8DF81570029700F008FE0FCCE0
:10430C001D4E06F110050FC50FCC0FC523682B6091
:10431C00029B7360039BB360049BF360337C13B309
:10432C0002F0A6F9154901F0B0FF154B154A1B68B0
:10433C003946304601F0D3FF02F09AF9124901F0E8
:10434C00A4FF42F2107002F017F8A5F1200000F063
:10435C00D7FD08E038B90121122002F05AFC2146A1
:10436C00102002F056FC0FB0F0BD00BFE0700D0045
:10437C0062710D0080E30320ECDE03206C710D00F4
:10438C003CDF032079710D0091710D0070B501F0C7
:10439C00EDFB204B204E642183F860141F49C3F8B9
:1043AC007014012183F874143168002211F0010596
:1043BC00DA7183F83C2483F83D2483F86A24C3F82B
:1043CC00782483F87C2483F87D241C460AD130465B
:1043DC00FFF75FFE30B12946114801F027FE304649
:1043EC00FFF75CFE0F480E4BC4F86C3400230374CB
:1043FC00437443604FF47A7383600B490B4B0C4A44
:10440C00036002F089FC11210A48BDE8704001F0FC
:10441C0039BB00BF44DF0320E0DE0320D4700D0065
:10442C00E4DE0320ECDE0320CB400D00E0700D0039
:10443C00DCDE032020DF032001F098BB01F096BBEB
:10444C0001F094BB01F092BB10B50446243000F08F
:10445C008FFE28B104F50C70BDE8104000F088BE4A
:10446C0010BD411E00F10A020020430843EAC010AF
:10447C0011F8013F53FA80F08A42C0B2F5D170476F
:10448C002DE9F0470378202B00F1010401D12046DF
:10449C00F8E7704F886005462C1A2E4615F8013B3C
:1044AC000BB32F2B01D1031917E05C2B02D1002089
:1044BC00BDE8F087A3F12204E4B21D2C03D827FA3F
:1044CC0004F4E407F3D403F0BF043C2CEFD0203BFE
:1044DC005E2BE1D9EBE72F2D05D11E4613F8015BBE
:1044EC00202DF8D1F9E7166003199842C0EB0308A8
:1044FC0009D013F8012D2E2AF7D0202AF5D0B8F1C7
:10450C00FF0FD4DC01E04FF00008C1F8048001F18A
:10451C000C0301F11702202403F8014F9342FBD145
:10452C0003461A1A13F8014B2E2CFAD0202CF8D073
:10453C00B2FA82F4640908F1FF36731C07D1002724
:10454C004FF0070E3D46BA464FF0080909E0835D6F
:10455C002E2BF4D0013EF0E7835C202B04D10024F9
:10456C0001324245F8DB4BE02E2B02D1B242F6D1A0
:10457C0003E0222B17D07C2B15D0A3F12A0CBCF115
:10458C00050F01D82D2B0ED1A3F13A0CBCF1050F60
:10459C0009D9A3F15B0CBCF1020F04D9A3F1210CD6
:1045AC00BCF15D0F02D9B2420ED149E0B24247D004
:1045BC00754521D8A3F1610CBCF1190F08D8203B2B
:1045CC00DBB249EA07070AE0754515D800245F23DA
:1045DC00A3F1410CBCF1190F98BF49EA0A0A05F185
:1045EC00010C5FFA8CFC0D44BCF1060F6B7301D807
:1045FC0081F80CC06546B3E7BEF10A0F17D1002451
:10460C004B7B202B3FF453AF3CB11AEA070F18BF7A
:10461C0002270F700120BDE8F0870B7B012008708A
:10462C0019447E234B7331238B73BDE8F087B24260
:10463C00E5DC32464FF00A0E08254FF010098EE7E4
:10464C00BEF10A0FDBD032464FF00A0E08254FF0B0
:10465C00100985E7010100312DE9F84391F80C9020
:10466C0006460D4602247E2701F10D086968AA68EA
:10467C0063189BB21144914206D012F8010B03EB64
:10468C00431343409BB2F6E7B9F1030F28BF4FF039
:10469C00030909F10402D2B203F00F01A818013A80
:1046AC000929D2B294BF30313731914541734FEA69
:1046BC001313F1D305EB090300215F73304600F0AF
:1046CC0031FB0121304600F010FB014628B970780F
:1046DC00B0FA80F04009BDE8F88303784BB1C37A97
:1046EC001B07EED40B22404602F08EFC0028E8D1CA
:1046FC0002E00120BDE8F8830134A4B2642CB5D1EA
:10470C00BDE8F8832DE9F04F9B460B7889B013F088
:10471C00700F05900E46914601D10020A0E1059B3B
:10472C001B78002BF9D15368029313789B0700F088
:10473C008D81029B0D270C33B3FBF7F70137FFB2CA
:10474C000021304600F0EEFA4FF0000809F10D029E
:10475C00CDF80C80434644464546CDF81080069271
:10476C007269079301213046C2F34F1A00F0BDFA6B
:10477C00079B20B97378002B00F09080CDE702786E
:10478C00E52A00D042B9002C08BFD046BC423CBF41
:10479C000134E4B222B981E0BC4238BF002403E00A
:1047AC00E52A01D10025DBE72E2AFBD0C17A0F299F
:1047BC0052D13DB95106D3D5437B039302F01F056B
:1047CC002B4607E0013BDBB29A42EBD1427B0399CB
:1047DC009142E7D15A1E4FF00D0C0CFB02FC029AD1
:1047EC006245DFD94FF0000EBEF1040F5FFA8EF276
:1047FC0004D800EB4E02B2F801200CE00A2A95BF57
:10480C000EF1FF320EF1010200EB420200EB42020C
:10481C0094BFD28892880299614503D1002A18BFAF
:10482C0000259DE7FF2ABDD8D2B2A2F1410119297A
:10483C00D9F8081011F80C1098BF20320CF1010AAD
:10484C00A1F1410C98BFD2B2BCF1190F9CBF203121
:10485C00C9B29142A6D1FBE00907A3D44DB1012BFB
:10486C007FF45BAFFFF7FDFD039B83427FF455AFF5
:10487C000FE00B220699079302F0C6FB079B00285A
:10488C007FF46EAF99F80020D20702D50122049272
:10489C0066E71BF4006F00F0D1803EE71BF4007F4D
:1048AC003FF43BAF0BF00303013B012B3FF635AF5D
:1048BC00002C08BFD046BC4202D3049BCBB91FE0EE
:1048CC000021304600F011FA10B973785BB124E77F
:1048DC000134E4B2EFE7B3681B79012BEDD8103447
:1048EC00E4B2A742E9D9304600F0D2F80028F2D160
:1048FC0013E749463046FFF7AFFE00283FF40DAFF3
:10490C004FEA4811304600F00DFA00283FF405AF8D
:10491C007D1EEDB22C464FF0000A4FF00F0841E01F
:10492C000021304600F0E1F9074600283FF4F5AECF
:10493C00B26892F82430AC4243F0010382F8243080
:10494C000CBF44F040022246027080F80B8080F8C5
:10495C000CA009F10D000392FFF783FD039A787305
:10496C0087F81AA087F81BA002F01F020D23013A4A
:10497C00D9F808E05A4300230299914215D91EF840
:10498C000210042B5FFA83FC03F1010013D807EB30
:10499C004303A3F801100D2802F101020346EBD1E9
:1049AC00013CE4B2002CBBD10EE014BF4FF0FF3140
:1049BC00002189B2E5E7BCF10A0F94BF07EB430372
:1049CC0007EB40039980E6E7736921463046C3F351
:1049DC004F1A00F08AF9074600283FF49EAE2022B9
:1049EC00214602F02BFB4B4653F80D2F3A605A68C8
:1049FC007A601A893A819B7ABB7299F8003003F07D
:104A0C0018033B73184B1B682BB107F10E0107F110
:104A1C001000984706E021233B7428237B7408235D
:104A2C00BC73FB733B8A7B823B83FB89FB82B26842
:104A3C0092F8243043F0010382F8243000955B4651
:104A4C0052463146059800F0B6F909E0012777E6A1
:104A5C000EF1010EBEF10D0F3FF482AED446C3E64B
:104A6C0009B0BDE8F08F00BFD0E3032001F07EB8A1
:104A7C0001F07CB801F07AB801F078B8837801695C
:104A8C0043F00403837000F11002806800F026BC30
:104A9C002DE9F041037803F02003044603F0FF05F1
:104AAC000BB100262EE04269184B9A42F9D8FFF759
:104ABC00E5FF06460028F4D02169A06800F0A3FBAE
:104ACC000746A06805223946243000F078FB804662
:104ADC000028E6D029464FF4007202F0AFFA012507
:104AEC00A3681A79AA4209D94246E919186800F054
:104AFC00E3FE0028D5D00135EDB2F1E7636903EB95
:104B0C00422363613046BDE8F08100BFFFFD1F000A
:104B1C0010B5044680680A462430A16900F04FFBAA
:104B2C0020B1A38803F00F0300EB431010BD70B548
:104B3C00047805460E4684B92422214602F07EFAFA
:104B4C00AE60F379102B03D0202B06D1402300E06C
:104B5C00202301202B70A87070BD002070BD2DE9A2
:104B6C00F74F03780446894615464BB18278D10736
:104B7C0006D50CE05A46216900F04BFB00283DDAC3
:104B8C00637843F0020363704FF0FF3097E01A072D
:104B9C0003D5E36962699B1A07E09A0608D5A368F6
:104BAC001A896369C3EB42139BB29D4228BF1D4611
:104BBC002E464FF0000804F1100B002E35D0227851
:104BCC006369A06812F0200FC3F3080A4FEA53215F
:104BDC0002D0036A19441DE090F8058001EA080828
:104BEC00BAF1000F10D1B8F1000F0DD1002BC1D1CB
:104BFC0053064CBF036A236A236105E004D1237872
:104C0C0013F0700F11D1BBE72169A06800F0FBFA1B
:104C1C0008EB0001A068BAF1000F35D1B6F5007FA2
:104C2C0032D3C36A994202D12EE0A81B47E0B6F5F5
:104C3C00806F1BD3227897064FEA562A06D4027946
:104C4C00C8EB0202D2B2924528BF924699424FEA73
:104C5C004A2707D2A06853464A46006800F0EAFD8E
:104C6C0060B98DE75344994221D3F3E74A46006873
:104C7C0000F098FD002883D04FF4007763693B4423
:104C8C00B9446361F61B98E70022243000F097FAD0
:104C9C0000283FF475AFCAF50077B74228BF3746F6
:104CAC0000EB0A013A46484602F0BDF9E6E724302B
:104CBC00019100F05DFA01990028CBD160E703B0B7
:104CCC00BDE8F08F73B501220DF10701044646696A
:104CDC000569FFF744FF012805BF9DF807006661D1
:104CEC004FF0FF30256102B070BD37B54369C3F397
:104CFC004315044605B169B901220DF1070120469F
:104D0C00FFF72DFF40B2012801D0002008E06369B5
:104D1C001F3300E02033A0686361303000EB451096
:104D2C0003B030BD2DE9F0410E4601780769044609
:104D3C00002939D04569B5423AD00EB9066131E047
:104D4C000B0703D5C3699E422ED807E0880605D50C
:104D5C00A3681B89B6EB431F26D823E0D4F808E0E0
:104D6C009EF806306A1E03F10900731EC240C34050
:104D7C009A4200D84DB94A064CBFDEF82020226A70
:104D8C0022611D4604F110080AE09B1AF9E742461D
:104D9C002169A06800F03DFA002805F1FF3503DD1C
:104DAC00002DF4D1666103E027610020BDE8F0819D
:104DBC000120BDE8F081F8B50F46154600212422EC
:104DCC0004461E4602F03AF9B868A06005F00F02DE
:104DDC00A58000F1300152013B6AE3601144CB7AAB
:104DEC001D074CD4831893F83B3003F01703237042
:104DFC00C97A11F0180F04BF43F0080323709DF813
:104E0C001830E37006F00303012B09D0022B05D0F8
:104E1C00002B34D1710532D4012302E0032300E0CE
:104E2C000223A370A1788B0703D5237813F0110FFD
:104E3C0025D14BB216F4005F06F0080114BF6FF0D9
:104E4C007F07002719433943A170C36AA361024449
:104E5C007505B2F84410B2F84A3043EA014104D562
:104E6C0081B100F076FA68B909E02162D36CE36194
:104E7C0073040CD5E1692046FFF754FF38B90020C4
:104E8C002070F8BDA37843F00403A370F0E7012071
:104E9C00F8BD000038B5037804460BB9012038BDC5
:104EAC0083785A0723D50121FFF732FE054628B92E
:104EBC00637843F001036370002038BD0378E52B61
:104ECC00F6D023781B0744BFE369C361238C43836B
:104EDC00638C8382094B1B682BB100F116011830CF
:104EEC0098472B8B6B82A37823F00403A370A068E4
:104EFC00FFF7AAFA0028DBD0D0E700BFD0E30320ED
:104F0C0010B50446FFF7C6FF0023237010BDF0B5A3
:104F1C0093B01F4600238DF824308DF8253003788C
:104F2C00019206460C460BB100203DE00B7813F0C5
:104F3C00700FF9D013782F2B12D1019B1A782F2ACE
:104F4C0002D101330193F8E7A1681AB93046FFF793
:104F5C00EEFD29E009A8FFF7EAFD0028E4D009AC32
:104F6C0001AA03A90198FFF78BFA0028DCD0019B5A
:104F7C001B789BB1002303AA21463046FFF7C2FBE6
:104F8C000028D1D035460FCD09AC0FC40FCD0FC4BE
:104F9C002B6823603046FFF7B3FFE0E73B4603AADC
:104FAC0021463046FFF7AEFB13B0F0BD2DE9F047BC
:104FBC000378894619070446904608D583789A07E2
:104FCC0005D51B070BD5E169FFF7ACFE38B9637843
:104FDC0043F0010363704FF0FF30BDE8F087636965
:104FEC00DB439845F3D846464FF0000A6369002E20
:104FFC0000F08180A068427912EA5325C3F30807B8
:10500C001CD1DFB9216971B104F1100200F001F972
:10501C000028DCDB40F08E802046FFF72FFD0028B7
:10502C0040F08880D3E7236A3BB92046FFF726FD82
:10503C000028CCD02369236200E023612169A06899
:10504C0000F0E1F8291817B9B6F5007F21D2C7F5A1
:10505C000075B54228BF354637B96369E26993429A
:10506C0034BF0122052200E00122A068243000F0A8
:10507C00A6F80028ABD038442A4649462F4401F004
:10508C00D2FFB7F5007F30D1A068243000F070F863
:10509C0017E0B6F5806FA06815D30279521B730A1E
:1050AC00D2B2934228BF1346C26A91424FEA4325BB
:1050BC0002D31A44914237D3A7684A46386800F0A5
:1050CC006DFC90B983E7C36A994202BF4FF0FF337E
:1050DC0080F824A0C362A3684A46186800F0ECFB71
:1050EC0000283FF474AF4FF4007563692B4463617F
:1050FC00A944761B7AE7E269934201D9E36102E0A5
:10510C000F4B1B681BB1A37843F00403A37094F9F5
:10511C000230002B02DB4046BDE8F0872046FFF74B
:10512C00B9FE0028F7D152E74FF0FF3280F824A0E7
:10513C00C262C1E72169A06800F065F8014683E707
:10514C00D0E3032000F012BD70B505460C460846AE
:10515C0049B101F0A3FF2B68024621462846DB68C3
:10516C00BDE87040184770BD00F000BD00F0FEBCFB
:10517C0070B50378DA0704461ED54368816800F1E0
:10518C000C063246186800F097FB054608B9002556
:10519C0013E023789B0704D4237823F001032370B6
:1051AC000BE06368A068196932460144186800F086
:1051BC0083FB0028F0D1EAE70125284670BD70B5C5
:1051CC0083688B4204460E46154614D0FFF7D0FF79
:1051DC0008B9002070BD6B0703D500232370A660AF
:1051EC0009E0636804F10C023146186800F0DAFA41
:1051FC000028F2D1EDE72378204605F003051D4386
:10520C0000F80C5B70BD8379406902399940084401
:10521C007047012970B505460C46164602D84FF06A
:10522C00FF3070BDC3699942F9D8C379202B10D1D6
:10523C008169022201EBD41100F50C70FFF7BFFF5E
:10524C000028ECD004F07F0450F8243023F0704395
:10525C000FE0102BE3D18369C1F30721022219441B
:10526C0000F50C70FFF7ABFF0028D8D0E4B230F893
:10527C001430EA6993429ABF33600120002070BD5C
:10528C00012938B50C46154601D8002038BDC36934
:10529C009942FAD8C379202B0ED18169032201EBF4
:1052AC00D41100F50C70FFF78AFF0028EDD004F044
:1052BC007F0440F824500FE0102BE6D18369C1F332
:1052CC0007210322194400F50C70FFF778FF002822
:1052DC00DBD0E4B220F81450012038BD2DE9F341A5
:1052EC00C4688C4205460E46904607D20C460027F1
:1052FC00EB6901349C4203D9CFB9EC680127F7E77D
:10530C00A64214D001AA21462846FFF782FF0028A6
:10531C000DDBEDD0019B002BEAD107B1EC606FF0F7
:10532C00704221462846FFF7ABFF074608B9002715
:10533C000BE016B9C8F8004007E022463146284673
:10534C00FFF79EFF0028F5D1F1E7384602B0BDE823
:10535C00F08173B505460C4601AA21462846FFF795
:10536C0058FF061E01DA00200FE0002221462846D5
:10537C00FFF786FF0028F6D0EB689C429CBF04F137
:10538C00FF34EC60019C002EE6D102B070BD70B50C
:10539C00012304460022C3604FF0FF33C2710D4657
:1053AC00A06280F82420C362C4F8340280F8302252
:1053BC00C0F83832A1B104295DD811462430FFF76A
:1053CC00FEFE002857D000EB051393F8AE315B06B8
:1053DC0051D11B3500EB0515D5F80650002D4AD0E0
:1053EC000022294604F12400FFF7E9FE002842D0F0
:1053FC00B0F80B30B3F5007F3DD1037C022B3AD1D2
:10540C00C389002B37D0417B21714B1E6371002364
:10541C00A371092601238B4207D0013E2BD0A27920
:10542C005B000132DBB2A271F5E7C28A02B9426AB3
:10543C002261C6892E44A661B0F81130238106EB97
:10544C0042012162B0F81120520102F2FF1201EB6D
:10545C0062226261B0F8133003B9036AAD1A2B44AF
:10546C00A57923FA05F56B1CE36140F6F4739D42B4
:10547C0003D80C23E371002070BD4FF6F4739D42EA
:10548C0085BFC36A236210232023E371012070BD02
:10549C0000F06CBB00F06ABB00F068BB70B50E4C42
:1054AC000E46154600F0F2FB2368C01A0B4B9842CF
:1054BC0008D900F0F3FB0A4B186000F04BFD00F02C
:1054CC00E5FB206000F0EAFB80B2801BA842D4BF51
:1054DC000020012070BD00BFD4E30320A086010092
:1054EC0030E7032038B5057A04464DB9406800F022
:1054FC007DFA63682946187D01F08BFB012323722A
:10550C0038BD10B5037A04466BB143680121187D90
:10551C0001F07FFBFF21606800F09AFA606800F0F0
:10552C0079FA0023237210BDF8B504460D461646D1
:10553C0000F0B4FB87B2606800F06FFAFF2860726D
:10554C0009D14FF47A7239462046FFF7A7FF00289D
:10555C00F1D055230BE0FE2801D0502307E0324652
:10556C002946606800F05EFA607230B16023204614
:10557C002370FFF7C6FF0020F8BD606800F04DFAFD
:10558C00606800F04AFA0120F8BD70B504460E467A
:10559C0000F084FB85B2324629462046FFF77EFF99
:1055AC0030B9606800F039FAFF28F4D1012070BDE1
:1055BC00002070BDF7B5037A019204460D460BB975
:1055CC00FFF790FF25B14FF496712046FFF7DDFFF2
:1055DC0045F04001606800F03BFA0DF107060DF153
:1055EC00030716F80119606800F032FABE42F8D1D0
:1055FC00002D0CBF95218721606800F029FA6068A6
:10560C0000F00BFA0B25606800F007FA03066072D5
:10561C0003D5013D15F0FF05F5D103B0F0BD70B514
:10562C0004460D46164637210022FFF7C3FF3246CB
:10563C0029462046BDE87040FFF7BCBF2DE9F0417C
:10564C0000250572057085724160044690461E4621
:10565C0000F024FB41460746606800F0CBF9636814
:10566C004F4A1D724FF00108DA605D7483F81080A8
:10567C002046FFF737FF63684146187D01F0C9FAF1
:10568C000A25FF216068013D00F0E2F915F0FF05E5
:10569C00F7D163682946187D01F0BBFA0A25002270
:1056AC0011462046FFF786FF0128804612D0013DA7
:1056BC0015F0FF0501D1202357E0FD21606800F0B3
:1056CC00C7F94FF40278606800F0A7F9B8F1010847
:1056DC00F9D1E4E74FF4D57208212046FFF76AFFB1
:1056EC00052802D184F80A800FE00425606800F0D8
:1056FC0094F9013D15F0FF056072F7D1AA2802D18B
:10570C000223A37201E025232FE0A37A022B0CBF06
:10571C004FF080450025BFB22A4629212046FFF7CD
:10572C007EFF024648B14FF4FA6239462046FFF735
:10573C00B5FE0028F0D0432317E0A37A022B0ED03D
:10574C002046FFF7DEFE6368B0683479317B727BEC
:10575C005A74D8601C7219740120BDE8F0813A218A
:10576C002046FFF727FF38B1372320462370FFF779
:10577C00C8FE0020BDE8F081606800F04EF900F032
:10578C00C000C02804BF0323A372606800F045F971
:10579C00606800F042F9606800F03FF9D0E700BFA4
:1057AC0090D0030038B5837A032B18BF49021546F5
:1057BC000A4611210446FFF7FDFE10B13023237079
:1057CC000BE029464FF400722046FFF7ADFE05466C
:1057DC0018B12046FFF795FE03E02046FFF791FE37
:1057EC000025284638BD10B5837A032B0A4618BF0E
:1057FC004A0212210446FFF7DDFE30B13123204668
:10580C002370FFF77EFE002010BD012010BD10B5E7
:10581C0000220C210446FFF7CDFE30B12823204690
:10582C002370FFF76EFE002010BD2046FFF769FEC7
:10583C00012010BDF8B5054616461F46FFF7D3FFED
:10584C0098B10024A3B29F4206EB442108D94FF42F
:10585C0000722846FFF768FE01340028F2D104E0FC
:10586C002846BDE8F840FFF7D2BF0020F8BD38B598
:10587C0004461546406800F0EBF84FF400722946D8
:10588C00606800F0E9F8FF21606800F0E1F8FF21A2
:10589C00606800F0DDF8606800F0BFF8607200F03E
:1058AC001F00052806D0572320462370FFF729FE3A
:1058BC00002038BD012038BD70B5837A032B18BF8A
:1058CC00490215460A4618210446FFF773FE0646A0
:1058DC0008B132231DE02A46FE212046FFF7C7FF00
:1058EC00C0B14FF4FA612046FFF74FFE054608B9E8
:1058FC005A230EE032460D212046FFF75BFE38B9E5
:10590C00606800F08AF818B92046FFF7FAFD05E048
:10591C00292323702046FFF7F4FD0025284670BD8F
:10592C0038B50D464FF4FA610446FFF72EFE10B958
:10593C005B23237005E02A46FC212046FFF797FFE6
:10594C0018B92046FFF7DDFD002038BD10B5837A6D
:10595C00032B0A4618BF4A0219210446FFF72AFEF8
:10596C0030B1332320462370FFF7CBFD002010BD50
:10597C00012010BD38B54FF4FA610446FFF705FE5F
:10598C00054620B1FD21606800F062F801E0562365
:10599C0023702046FFF7B5FD284638BDF8B50546FF
:1059AC0016461F46FFF7D2FF70B10024BC4206EB2F
:1059BC004421284604D0FFF7B3FF28B10134F5E7A2
:1059CC00BDE8F840FFF7D6BF2846FFF79AFD002048
:1059DC00F8BD00F0CBB800F0C9B800F0C7B80000B3
:1059EC00014B01221A707047D8E30320011D006897
:1059FC0000F050BB10B504460175006800F020FBA8
:105A0C00207D012101F0F4F8207D0121BDE810403A
:105A1C0001F0FFB8006800F024BBFF21006800F023
:105A2C00A9BB000037B5084B00930025074C006854
:105A3C00257013460A46294600F0A2FB2378002B5A
:105A4C00FCD0002003B030BDED590D00D8E303208D
:105A5C00006800F08FBB000037B5074B00930025A2
:105A6C00064C0068257013462A4600F089FB237803
:105A7C00002BFCD003B030BDED590D00D8E3032052
:105A8C0000F074B80022016002614261704710B5E9
:105A9C000446008801F0E9F840F21233A0F10B0241
:105AAC009A4207D8A0606060E06000F0F7F8A0614F
:105ABC00012010BD002010BD8068704710B5044651
:105ACC0000F0ECF8A369C01A074B98420AD9236975
:105ADC00626993FBF2F3E36000F0E0F80023A0614D
:105AEC002361636110BD00BF20A1070010B583685E
:105AFC0043600446008801F0B8F82369A06018449C
:105B0C0063692061013363612046FFF7D7FFA26808
:105B1C006168511AB1F5C87F10DCB2F52F7F0DDC2E
:105B2C00E368D31A962B0BDCC82902DDB2F52F7F64
:105B3C0008D1322BCCBF0220032010BD002010BD99
:105B4C00012010BD022010BD00F010B808B5024BAA
:105B5C001B689B68019308BD6802030008B5024BE3
:105B6C001B68DB68019308BD6802030008B5024B93
:105B7C001B681B68019308BD2C02030008B5024B7F
:105B8C001B685B68019308BD2C02030008B5024B2F
:105B9C001B689B68019308BD2C02030008B5024BDF
:105BAC001B68DB68019308BD2C02030008B5024B8F
:105BBC001B681B69019308BD2C02030008B5024B3E
:105BCC001B685B69019308BD2C02030008B5024BEE
:105BDC001B681B6B019308BD2C02030008B5024B1C
:105BEC001B681B68019308BD3002030008B5024B0B
:105BFC001B685B69019308BD3002030008B5024BBA
:105C0C001B68DB69019308BD3002030008B5024B29
:105C1C001B681B6A019308BD3002030008B5024BD8
:105C2C001B685B6A019308BD3002030008B5024B88
:105C3C001B689B6A019308BD3002030008B5024B38
:105C4C001B689B6B019308BD3002030008B5024B27
:105C5C001B68DB6B019308BD3002030008B5024BD7
:105C6C001B681B6C019308BD3002030008B5024B86
:105C7C001B685B6C019308BD3002030008B5024B36
:105C8C001B685B68019308BD1802030008B5024B42
:105C9C001B681B69019308BD1802030008B5024B71
:105CAC001B685B69019308BD1802030008B5024B21
:105CBC001B689B68019308BD4802030008B5024BA2
:105CCC001B681B69019308BD4802030008B5024B11
:105CDC001B685B69019308BD4802030008B5024BC1
:105CEC001B685B6C019308BD4802030008B5024BAE
:105CFC001B689B6C019308BD4802030008B5024B5E
:105D0C001B685B69019308BD6402030008B5024B74
:105D1C001B681B68019308BD3C02030008B5024BCD
:105D2C001B68DB68019308BD3C02030008B5024BFD
:105D3C001B681B69019308BD3C02030008B5024BAC
:105D4C001B685B69019308BD3C02030008B5024B5C
:105D5C001B689B69019308BD3C02030008B5024B0C
:105D6C001B68DB69019308BD3C02030008B5024BBC
:105D7C001B681B6A019308BD3C02030008B5024B6B
:105D8C001B689B6A019308BD3C02030008B5024BDB
:105D9C001B681B6A019308BD2802030008B5024B5F
:105DAC001B685B6A019308BD2802030008B5024B0F
:105DBC001B689B6A019308BD2802030008B5024BBF
:105DCC001B68DB6A019308BD2802030008B5024B6F
:105DDC001B681B6B019308BD2802030008B5024B1E
:105DEC001B685B6B019308BD2802030008B5024BCE
:105DFC001B681B6C019308BD2802030008B5024BFD
:105E0C001B681B68019308BD4C02030008B5024BCC
:105E1C001B685B68019308BD4C02030008B5024B7C
:105E2C001B681B69019308BD4C02030008B5024BAB
:105E3C001B685B69019308BD4C02030008B5024B5B
:105E4C001B689B69019308BD4C02030008B5024B0B
:105E5C001B68DB69019308BD4C02030008B5024BBB
:105E6C001B681B6A019308BD4C02030008B5024B6A
:105E7C001B685B68019308BD2002030008B5024B48
:105E8C001B685B69019308BD2002030008B5034B36
:105E9C001B68D3F88830019308BD00002002030072
:105EAC0008B5034B1B68D3F89430019308BD000070
:105EBC002002030008B5024B1B685B68019308BD08
:105ECC004002030008B5024B1B689B68019308BD98
:105EDC004002030008B5024B1B68DB68019308BD48
:105EEC004002030008B5024B1B681B69019308BDF7
:105EFC004002030008B5024B1B685B69019308BDA7
:105F0C004002030008B5024B1B689B69019308BD56
:105F1C004002030008B5024B1B68DB69019308BD06
:105F2C004002030008B5024B1B681B6A019308BDB5
:105F3C004002030008B5024B1B681B6B019308BDA4
:105F4C004002030008B5024B1B685B6B019308BD54
:105F5C004002030008B5024B1B689B68019308BD07
:105F6C004402030008B5024B1B68DB6B019308BDB0
:105F7C004402030008B5024B1B681B68019308BD63
:105F8C001C02030008B5024B1B685B68019308BD3B
:105F9C001C02030008B5024B1B685B6A019308BD29
:105FAC001C020300002211464068FFF7BBBF002211
:105FBC0011464068FFF7C6BF00224068FFF7BABF22
:105FCC00002281F001014068FFF7A4BF00231A46AC
:105FDC0019464068FFF796BF00231A4619464068D9
:105FEC00FFF788BF002211464068FFF77BBF0022F5
:105FFC0011464068FFF766BF002202214068FFF798
:10600C0069BF00231A464068FFF754BF024B0322B6
:10601C005A60024A1A607047DCE30320B8710D0025
:10602C000021FFF71BBE0021FFF720BE10B5044670
:10603C0001700846FFF7E2FD00236360204610BDA7
:10604C0010B504460078FFF7EBFF48B920784FF6FF
:10605C00FF71FFF7C3FD2078BDE81040FFF7E3BFE9
:10606C0010BD0078FFF7DFBF400830B51860002482
:10607C0018688842E5B206D90134082C02D04008D1
:10608C001860F5E70725024B5B5D137030BD00BF50
:10609C00E4710D002DE9F04307468FB000780E46F1
:1060AC00FFF7BEFF002862DB3C781422002109A810
:1060BC0000F0C4FF0B232046002209A9ADF82430C0
:1060CC00FFF7ACFD9DF82D4054B19DF82C5035B91F
:1060DC00DDF830809DF834909DF8354003E00024C5
:1060EC00A146A0460125337905B1BBB99D420BD120
:1060FC00B268424508D18DF820908DF82140BDF84A
:10610C002010B289914209D053B1002438780194FF
:10611C000094234622460121FFF798FD002026E03B
:10612C008DF80F30B1680A9804AB0DF10F02FFF730
:10613C009BFF317905B1B1B9A94208D00024387858
:10614C000194747B337B9DF80F200094E4E7B368D3
:10615C004345F3D38DF820908DF82140BDF82020D5
:10616C00B3899A42EAD1049B4345E7D1D6E70FB0F5
:10617C00BDE8F08308B50078FFF738FDC0B208BD64
:10618C0030B587B004460A9D00780095FFF74EFDA8
:10619C003DB902A92078FFF751FD9DF81430DB07BB
:1061AC00F7D407B030BD0078FFF730BD10B504460A
:1061BC00006818B1FFF7E6FE0023236010BD10B590
:1061CC000446FFF7F3FF204610BD000010B5094C44
:1061DC0000204FF6FF732060A080A07120816381A6
:1061EC00FFF744FE2046044A0449BDE8104000F085
:1061FC0093BD00BFE4E30320DCDE0320CB610D0084
:10620C0010B50446006808B1FFF770FD204610BDBC
:10621C0010B5064C002320462360FFF75FFD204697
:10622C00034A0449BDE8104000F076BDF0E30320BA
:10623C00DCDE03200D620D00F8B506460D468F1806
:10624C000024BD420CD0336815F8011B9B68304606
:10625C009847002801DB0444F3E7002C08BF0446F0
:10626C002046F8BD08B5FEF76FFF08BD03689B68B4
:10627C00184738B50D210546FFF7F8FF0A210446EB
:10628C002846FFF7F3FF204438BD38B50546FEF726
:10629C005BFF04462846FFF7ECFF204438BD30B5C1
:1062AC008BB00B4600218DF82410012A98BF0A22CE
:1062BC000DF12304B3FBF2F505FB123303F0FF03DE
:1062CC00092B94BF30333733DBB2214604F8013944
:1062DC002B46002DEED1FEF737FF0BB030BD0CB4C2
:1062EC002DE9F04387B000AF07F13804054654F8A8
:1062FC00049B3C600E4623464A461421381DFFF78A
:10630C0049FE132805D8391D2846FEF71DFF044603
:10631C0013E000F1080323F00703E846ADEB030D8F
:10632C00411C23464A4668463C60FFF733FE6946EB
:10633C002846FEF709FF0446C5461EB12846FFF75E
:10634C0098FF044420461C37BD46BDE8F04302B01C
:10635C0070470000014B024A1A607047F4E30320B7
:10636C005F720D00024B1A68024B1A60704700BF37
:10637C0074DE0320F8E303200021FFF77FBD10B586
:10638C008368044613B1032201469847204610BD8A
:10639C0010B50446FFF7F3FF204610BD0348044A2E
:1063AC0004490023836000F0B7BC00BFFCE303206A
:1063BC00DCDE03209D630D0008B50C4B33B100F0FF
:1063CC0057F903681B699847002809DC084B63B12F
:1063DC0000F0D0F903681B699847002803DC08BD5E
:1063EC00AFF30080F2E7AFF3008008BD00000000BF
:1063FC000000000008B5FFF7DFFFFFF74FFC014B73
:10640C00186008BD30E703200248034A0349121AFA
:10641C0000F009BE00F4032004F4032020750D00E5
:10642C0007B5002300931A466FF07701FFF738FD8C
:10643C0003B05DF804FB000007B543880A2B08D0B5
:10644C00502B09D1094B1B683BB103B05DF804EB31
:10645C001847FFF7E5FF06E0002300931A466FF09C
:10646C007701FFF71DFD03B05DF804FB0CE403207E
:10647C0038B5104C104D2368AB42104B0CBF0122A9
:10648C0000221A7002D0FFF7BFFF2560FFF7F6FB62
:10649C00044600F0DBFD0A4B13B12046AFF300803D
:1064AC0000210748FFF75EFD00210648BDE8384093
:1064BC00FFF7ECBC00F403201E1C279A10E4032009
:1064CC000000000045640D00704710B5182104460B
:1064DC0000F030FC204610BDF0B5037D062B8DB0CE
:1064EC000E4600F104074FF0000402D000F108053D
:1064FC0018E00CAD394605F8304D2F232A460A20FA
:10650C00FFF7FCFB284600F0C9FD33680246DB6848
:10651C002946304698470FE024B12E213046FFF72C
:10652C00A5FE044415F8011D0A223046FFF7B7FEFC
:10653C00BD420444F0D120460DB0F0BD10B5054B62
:10654C000446112240F8043B002100F077FD204660
:10655C0010BD00BF00730D000346074A10B543F889
:10656C00042B01F1100251F8044B43F8044B9142F7
:10657C00F9D10A781A7010BD00730D0010B59DF892
:10658C00084044EA032343EA024242EA016104233D
:10659C004160037510BD37B50D788B784A78C97892
:1065AC0000912946FFF7EAFF03B030BD41747047F4
:1065BC00704708B50021007CFFF740FC30EA200052
:1065CC0028BF4FF0FF3008BD08B50121007CFFF754
:1065DC0035FC30EA200028BF4FF0FF3008BD08B56D
:1065EC00007CFFF723FC20EAE07008BD08B5007CB6
:1065FC00FFF714FC20EAE07008BD007CFFF72EBC0E
:10660C0010B51421044600F095FB204610BD38B59A
:10661C000446007C0D46FFF709FC002801DC607C79
:10662C0028B12946207CFFF711FC20EAE07038BD28
:10663C0010B50446002363604FF47A73A360054BD6
:10664C00236001230846217463741146FFF7D6FBBF
:10665C00204610BD14730D000022007CFFF7D6BB42
:10666C0010B514220446002100F0E8FC204610BDB1
:10667C0030B50E4D87B001A8FFF7F2FF296811F075
:10668C00010410D12846FDF704FD60B101AA214692
:10669C000748FFF7CDFF2846FDF700FD054A0649E0
:1066AC00034800F039FB024807B030BD14E4032066
:1066BC0018E40320DCDE0320BD650D007047417437
:1066CC00704708B5007CFFF759FB20EAE07008BD65
:1066DC0008B5007CFFF72AFB20EAE07008BD08B57E
:1066EC00007CFFF733FB30EA200028BF4FF0FF306F
:1066FC0008BD08B5007CFFF721FB30EA200028BF5D
:10670C004FF0FF3008BD007CFFF728BB10B51421FB
:10671C00044600F00FFB204610BD70B5457C0446C6
:10672C000E4625B9007CFFF729FB002805DD314614
:10673C00207CBDE87040FFF7F1BA284670BD000020
:10674C0010B5044608461146002262604FF47A7276
:10675C00A260054A22600122207462741A46FFF777
:10676C00D5FA204610BD00BF44730D00007CFFF726
:10677C00FDBA000038B50C4D296811F0010411D197
:10678C002846FDF786FC68B1084A094B09482146A2
:10679C00FFF7D6FF2846FDF781FC074A0749054855
:1067AC0000F0BAFA034838BDC4E40320C8E403205F
:1067BC0040E403202CE40320DCDE0320C9660D003A
:1067CC007047F8B5064615460C468F18BC4206D0E5
:1067DC00336814F8011B9B6830469847F6E7284647
:1067EC00F8BD0022007CFFF7D1BA0021007CFFF736
:1067FC00D5BA0021007CFFF7D9BA0021007CFFF745
:10680C00DDBA0021007CFFF7E1BA10B51421044673
:10681C0000F090FA204610BD10B5044600236360CA
:10682C004FF47A73A360044B21740846236011461D
:10683C00FFF7DCFA204610BD74730D000021007CBC
:10684C00FFF7CCBA002211464068FFF76BBB002261
:10685C0011464068FFF776BB00224068FFF76ABB21
:10686C00002281F001014068FFF754BB00231A4657
:10687C0001214068FFF746BB00231A4619464068C1
:10688C00FFF738BB002211464068FFF72BBB0022F4
:10689C0011464068FFF716BB002202214068FFF743
:1068AC0019BB00231A464068FFF704BB38B50546F0
:1068BC0088B104684CB1A3681BB103222146204661
:1068CC0098471021204600F035FA28461421BDE8DF
:1068DC00384000F02FBA38BD10B103685B68184718
:1068EC00704710B503680446BBB15868FFF7DEF972
:1068FC0078B923685A7C12B95868FFF7DFF9236816
:10690C005868FFF7E3F920680023236028B1FFF7EC
:10691C00CDFF206808B1FFF7C9FF204610BD38B580
:10692C000446D0F8C40108B1FDF7B1FBD4F8C0019E
:10693C0008B1FFF7DBF9D4F8BC5135B12846FFF7A5
:10694C00D0FF0421284600F0F5F9206808B1FFF7C4
:10695C00C3FF204638BD000010B5044B044640F878
:10696C00083BFFF7DCFF204610BD00BF9C730D00F9
:10697C0038B50E4C0E4B23600025022304F5E47051
:10698C006360A560C4F8C451C4F8C851FFF7A6F9F8
:10699C00084BC4F8CC5184F8D05123602046064AE9
:1069AC000649BDE8384000F0B7B900BF4CE50320FC
:1069BC0004740D009C730D00DCDE032065690D0072
:1069CC00002211464068FFF78DBA0022114640683C
:1069DC00FFF7A8BA002211464068FFF7B3BA0022AD
:1069EC004068FFF7A7BA002281F001014068FFF769
:1069FC0091BA00231A4619464068FFF783BA002360
:106A0C001A4619464068FFF775BA002211464068CD
:106A1C00FFF758BA002202214068FFF75BBA002347
:106A2C001A464068FFF746BA024B04225A60024AE3
:106A3C001A60704720E70320D0730D0000231A461C
:106A4C004068FFF737BA002202214068FFF742BACC
:106A5C00002211464068FFF735BA00221146406803
:106A6C00FFF740BA00231A4619464068FFF742BAAE
:106A7C0000231A4619464068FFF744BA002281F0F9
:106A8C0001014068FFF746BA00224068FFF752BA8E
:106A9C00002211464068FFF755BA002211464068A3
:106AAC00FFF740BA2DE9F043002495B016460D4689
:106ABC000746FFF743FD214620220CA8009400F066
:106ACC00BDFA40230C9321466B460CAA3046FFF7C7
:106ADC0045F80446002844D1024601216868FFF7B6
:106AEC0001FA0221804622466868FFF7FBF9009EF6
:106AFC0081462146002E34D0002932D17368022BF6
:106B0C0002D00A2B09D02AE0B8F1000F27D0716906
:106B1C0038460431FFF73FFD20E0B9F1000F1ED0DD
:106B2C007469112201A800F089FA06238DF814303B
:106B3C0001AD04F108031834186859682A4603C2D9
:106B4C000833A3421546F7D101A906A807ADFFF7F4
:106B5C0003FD0FCD3C1D0FC42B6823700121F6697A
:106B6C00C8E70098FEF7F2FF384615B0BDE8F08391
:106B7C00024B034A1A6000225A60704728E7032030
:106B8C0004740D0070B5184E316811F001050446FF
:106B9C000AD13046FDF77DFA30B129461348FFF78C
:106BAC0045FA3046FDF77AFA1048FFF7FCFA28B19F
:106BBC00A4F10B03022B01D8002070BD00F086F865
:106BCC00FFF73CFE08B1012CF6D9FFF7D3FDFFF718
:106BDC00CDFD18B1A4F10903012BEDD9232C8CBFE9
:106BEC000020012070BD00BFE0DE0320E4DE0320A6
:106BFC00232838B504460D460AD8FF2908D0FFF7DC
:106C0C00C1FF28B129462046BDE83840FEF7BEBF7B
:106C1C0038BD38B504460D46FEF7C0FFFF2810D02E
:106C2C00062804D84D2323FA00F0C30709D42046C4
:106C3C00FFF7A8FF28B129462046BDE83840FEF7EB
:106C4C00B5BF38BD10B50446FEF7A8FF0438C0B276
:106C5C00012808D92046FFF795FF20B12046BDE852
:106C6C001040FEF7ABBF002010BD0D2810B5044638
:106C7C009CBF0E34A4B22046FFF784FF50B1032111
:106C8C002046FEF77BFF032804D12046BDE81040C8
:106C9C00FEF79CBF002010BD70B5044614252A4693
:106CAC00094E002100F0CAF9258020253146A56047
:106CBC002561284600F040F831466060284600F017
:106CCC003BF8E060204670BD30740D0030B50E4DC1
:106CDC00296811F0010487B013D12846FDF7D9F9C2
:106CEC0078B101A8FFF7D8FF01AA21460748FFF7A2
:106CFC0093FD2846FDF7D2F9054A0649034800F0F2
:106D0C000BF8024807B030BD34E7032038E7032006
:106D1C00DCDE0320CD670D000B460146184600F063
:106D2C0065B90000024B1868BFF35F8F704700BF56
:106D3C004CE70320FDF7A9B900F000B810B5002806
:106D4C0014BF044601242046FFF714F920B9FFF7BD
:106D5C00E9FF08B18047F6E710BD0000184B1A6830
:106D6C00D1075CBF01221A60164B1A68D2075CBFB0
:106D7C0001221A60144B1A68D0075CBF01221A60FA
:106D8C00124B1A68D1075CBF01221A60104B1A68AB
:106D9C00D2075CBF01221A600E4B1A68D0075CBF89
:106DAC0001221A600C4B1A68D1075CBF01221A60D1
:106DBC000A4B1A68D2075CBF01221A60704700BFE9
:106DCC006CE7032068E7032064E7032060E70320F7
:106DDC005CE7032058E7032054E7032050E7032027
:106DEC00244B1A68D0075CBF01221A60224B1A6828
:106DFC00D1075CBF01221A60204B1A68D2075CBF16
:106E0C0001221A601E4B1A68D0075CBF01221A605F
:106E1C001C4B1A68D1075CBF01221A601A4B1A6806
:106E2C00D2075CBF01221A60184B1A68D0075CBFEE
:106E3C0001221A60164B1A68D1075CBF01221A6036
:106E4C00144B1A68D2075CBF01221A60124B1A68E5
:106E5C00D0075CBF01221A60104B1A68D1075CBFC7
:106E6C0001221A600E4B1A68D2075CBF01221A600D
:106E7C00704700BF9CE7032098E7032094E70320AA
:106E8C0090E703208CE7032088E7032084E70320A6
:106E9C0080E703207CE7032078E7032074E70320D6
:106EAC0070E70320244B1A68D0075CBF01221A60DC
:106EBC00224B1A68D1075CBF01221A60204B1A685A
:106ECC00D2075CBF01221A601E4B1A68D0075CBF48
:106EDC0001221A601C4B1A68D1075CBF01221A6090
:106EEC001A4B1A68D2075CBF01221A60184B1A6839
:106EFC00D0075CBF01221A60164B1A68D1075CBF21
:106F0C0001221A60144B1A68D2075CBF01221A6066
:106F1C00124B1A68D0075CBF01221A60104B1A681A
:106F2C00D1075CBF01221A600E4B1A68D2075CBFF6
:106F3C0001221A60704700BFCCE70320C8E703208A
:106F4C00C4E70320C0E70320BCE70320B8E7032015
:106F5C00B4E70320B0E70320ACE70320A8E7032045
:106F6C00A4E70320A0E70320184B1A68D1075CBFE5
:106F7C0001221A60164B1A68D2075CBF01221A60F4
:106F8C00144B1A68D0075CBF01221A60124B1A68A6
:106F9C00D1075CBF01221A60104B1A68D2075CBF84
:106FAC0001221A600E4B1A68D0075CBF01221A60CE
:106FBC000C4B1A68D1075CBF01221A600A4B1A6885
:106FCC00D2075CBF01221A60704700BFECE70320B8
:106FDC00E8E70320E4E70320E0E70320DCE70320F5
:106FEC00D8E70320D4E70320D0E7032010B5054CE5
:106FFC0013462CB10A4601460220AFF3008010BDA7
:10700C00204610BD0000000010B50139024490422A
:10701C0007D010F8013B11F8014FA342F7D0181B11
:10702C0010BD002010BD10B5431E0A44914204D07F
:10703C0011F8014B03F8014FF8E710BD0244034669
:10704C00934202D003F8011BFAE7704738B5124B94
:10705C001C68A36B0546D3B91820FEF78BFF43F2CF
:10706C000E33A06303804AF6CD33438041F23423C0
:10707C0083804EF26D63C3804DF6EC630381052370
:10708C0043810B23838101220023C0E90423A36BDA
:10709C0000221D615A6138BDD8DE0320034613F867
:1070AC00012B002AFBD1181A013870471D400D0026
:1070BC0059400D0085400D0089400D000000000076
:1070CC000000000000000000CD400D00000000009A
:1070DC0000000000CB400D006F410D0057410D002A
:1070EC0051410D00AF400D0031410D002B410D0001
:1070FC0025410D0064656661756C7420004D53422A
:10710C00004C5342003C53504953657474696E678C
:10711C00732064656661756C743E003C5350495332
:10712C00657474696E6773202573256C75202573DF
:10713C00204D4F444525643E00736420696E69748C
:10714C0020646F6E650020736420696E697420661C
:10715C0061696C65640061714C6F672E74787400A2
:10716C0066696C65206F70656E656421006169727B
:10717C00207175616C6974792076616C75653A2043
:10718C002569200A007072696E74696E672E2E2E46
:10719C0000000000020000000300000001000000DD
:1071AC000000000000000000000000000F600D0057
:1071BC0005600D00FB5F0D00F15F0D00E55F0D003C
:1071CC00D95F0D00CD5F0D00C55F0D00BB5F0D00DD
:1071DC00B15F0D00B16A0D0000081018202830387E
:1071EC00626175640053657269616C005365726904
:1071FC00616C31007479706500706172616D00634F
:10720C006D6400696400686E64007374726D00666E
:10721C00696C74006C766C0061646448616E646CBB
:10722C0065720072656D6F766548616E646C65722F
:10723C0000656E756D48616E646C657273004A53BF
:10724C004F4E53747265616D4C6F6748616E646C20
:10725C0065720061707000253031307520005D2042
:10726C00002564002C200028293A2000205B0063B4
:10727C006F6465203D200025690064657461696C4C
:10728C0073203D20000D0A0066006C6E00666E00D7
:10729C00636F64650064657461696C006E6F6E6524
:1072AC0000747261636500696E666F007761726E5F
:1072BC00006572726F720070616E696300616C6C54
:1072CC00005A00252B3033643A253032750025598D
:1072DC002D256D2D25645425483A254D3A255325E9
:1072EC007A0061736374696D650000000000000032
:1072FC0000000000E5640D00D5640D00D7640D009E
:10730C000000000000000000BD650D000D660D00C2
:10731C001B660D0045620D00F9650D00BF650D0083
:10732C00D5650D0007660D00EB650D00B9650D0008
:10733C000000000000000000C9660D0019670D0078
:10734C0027670D0045620D00DD660D00FF660D0020
:10735C00EB660D0013670D00CB660D00CF660D00BC
:10736C000000000000000000CD670D0017680D0044
:10737C00EF670D00CF670D00F7670D00FF670D007D
:10738C0007680D000F680D000000000000000000F1
:10739C00AF680D00A5680D009B680D0091680D008D
:1073AC0085680D0079680D006D680D0065680D002D
:1073BC005B680D0051680D00B16A0D000000000003
:1073CC00000000002B6A0D00216A0D00176A0D00E9
:1073DC00CD690D000B6A0D00FF690D00F3690D00FE
:1073EC00EB690D00E1690D00D7690D00B16A0D0064
:1073FC000000000000000000496A0D00536A0D00F7
:10740C005D6A0D00676A0D00716A0D007D6A0D00E2
:10741C00896A0D00956A0D009D6A0D00A76A0D0022
:10742C00B16A0D0000000000000000000000000028
:10743C000000000000000000000000000000000040
:10744C000000000000000000000000000000000030
:10745C000000000000000000000000000000000020
:10746C000000000000000000000000000000000010
:10747C000000000000000000000000000000000000
:10748C0000000000000000004300000099430D00C4
:10749C0045440D0049440D004D440D0051440D0070
:1074AC00794A0D007D4A0D00814A0D00854A0D0078
:1074BC0051510D0075510D0079510D009D540D0069
:1074CC00A1540D00A5540D00DF590D00E3590D001A
:1074DC00E7590D008D5A0D00555B0D0019600D001C
:1074EC00D9610D001D620D0061630D0071630D000B
:1074FC00A9630D007D690D00356A0D007D6B0D00D3
:10750C00696D0D00ED6D0D00B16E0D00756F0D0008
:04751C00000000006B
:047520000000000067
:10752400EE720D000000000034740D0054740D0060
:1075340074740D0000000000000000000000000052
:107544000000000094740D00000000000000000022
:107554000000000000000000000000000000000027
:107564000000000000000000000000000000000017
:107574000000000000000000000000000000000007
:087584000000000078DE032086
:10758C00FFFFFFFF00000102030405060708090ABC
:10759C000B0C0D0E0F101112131415161718191AB7
:0875AC001B1C1D1E1F202800FE
:0475B40078563412BF
:04000003D000401CCD
:00000001FF
